:100000000C9470080C9498080C9498080C94980818
:100010000C9498080C9498080C9498080C949808E0
:100020000C9498080C9498080C9498080C949808D0
:100030000C9498080C9498080C9498080C949808C0
:100040000C94840E0C9498080C94520E0C942C0E64
:100050000C9498080C9498080C9498080C949808A0
:100060000C9498080C949808101030020020C0C01E
:10007000F0F03C3CFFFFFFFF3C3CF0F0C0C0C0C0D4
:10008000F0F03C3CFFFFFFFF3C3CF0F0C0C0C3C3BE
:100090003333CFCF33333333CFCF3333C3C33333A0
:1000A000CFCF03030F0F0F0F0303CFCF333318103E
:1000B00030020030F0F0FCFCFCFC3C3C3F3FFFFF1A
:1000C000FFFF3F3F3C3CFCFCFCFCF0F0F0F0FCFC94
:1000D000FCFC3C3C3F3FFFFFFFFF3F3F3C3CFCFC48
:1000E000FCFCF0F0C3C3C3C333333F3F0F0F3333C4
:1000F00033330F0F3F3F3333C3C3C3C30303333320
:10010000FFFFCFCF0F0F333333330F0FCFCFFFFFAF
:100110003333030316103002002CFCFCC0C0F3F391
:100120003C3CF0F0F0F0F0F03C3CF3F3C0C0FCFCE1
:100130000000C0C0F3F33C3CF0F0F0F0F0F03C3CC9
:10014000F3F3C0C000000303CFCF3F3F0F0F0F0FEB
:100150000F0F0F0F0F0F3F3FCFCF03033F3F03039F
:100160003F3FCFCFCFCF0F0FCFCFCFCF3F3F0303F7
:100170003F3F0C30300B012000C0F87C3E3EFCF8C5
:10018000C0000000000080E078FEFE0000000000DB
:1001900000F07C3C3E3EFEFCE0000000007C3E3E69
:1001A0003EFEF8C0000000000000000000F8FEFE67
:1001B0000000000000FEFE3E3E3E3E3E000000000D
:1001C000000080F0FC3E3E3EFC000000003E3E3E53
:1001D0003E3E3E3EFEFE00000000C0F8FE3E7EFCBD
:1001E000E00000000000E0FC7E3EFEF8C0000000E1
:1001F00000000000C0E0C00000000000F0FF0F00A1
:100200000000F9FFFFF000000000070300FFFF00FF
:100210000000000000010000000000FFFF000000DF
:10022000000000000000FFFF00000000000000E0F0
:10023000FF1FFFFF0000000000FFFF0000000000A4
:100240000000000000E0FF3F000000000000000090
:10025000000000000000C0FC7F0300000000FFFF62
:10026000000000FFFF00000000FEFF03000000FF91
:10027000FFF00000000000003F7F3F000000000092
:10028000FFFF0000E0FF1F00FFFF00000000000074
:1002900000FFFF00000000000000000000E0FE1F63
:1002A000010000000000F8F8FCFFC700000000009B
:1002B00000C0FE3F0300FFFF00000000003F3F3E84
:1002C0007EFCF8E00000000000FFFF80F07C7CF87E
:1002D000F00000000000000080F8FF0700000000B0
:1002E0000000019FFFF8FE1F0100000000FFFFC09B
:1002F000000080FFFFFF0000000000000000000081
:1003000000000000FFFFC0FC7F030000FFFF0000B3
:100310000000000000FFFF0000000000000000E0FF
:10032000FE0F0100000000000000000000010FFFB0
:10033000F8000000F8FFE7E0E0E0FFFFE0E0E000A9
:1003400000000000000007FFFE00000000FFFFFFAC
:1003500003000001FFFF0000000000F0FF0F00009D
:100360000000000000C0FC3F03031FFFFCC00000B2
:1003700000000F1F3E3E0F01FFFF000000000000C5
:10038000008000000000000007FFFF07000000FCE5
:10039000FF0700000000000000FFFF000000000059
:1003A00000E0FE0F00000000000000000000000060
:1003B0000000C0FF7F000000030303030303FFFFEF
:1003C00003030300000000000000C0FF7F000000E6
:1003D000000FFFFF80000080FF7F00000000FEFF95
:1003E000030000000000000000FFFF80000000800C
:1003F000FFFF000000000000000080FCFF0700007D
:1004000000000000FFFFFF000000000000031F3F8E
:100410007C7C3F1F0300000000007C7C7C7F7F7C95
:100420007C7C0000007F7F7C7C7C7C7C7C000000EE
:10043000003F7E7C7C7E1F07000000000000000063
:1004400000007F7F00000000001F3E7C7C3E1F07F5
:10045000000000000000031F7F7C7C3F07000000BD
:1004600000007F7F000000000000000000011F3F2F
:100470007E7C7E3F1F01000000003E7C7C7E3F0FA3
:10048000010000000000000000010000000000006A
:100490000A102E0C011400000000000000000000F3
:1004A0000000000000000000000078FC02030303CD
:1004B0000302FC780000000000000000FF7E000046
:1004C000028383838302FC78000002838383830298
:1004D000FC787EFF008080808000FF7E78FC0283B5
:1004E00083838302000078FC0283838383020000FD
:1004F0000002030303030302FC7878FC0283838376
:100500008302FC7878FC028383838302FC780000FA
:100510000060F0F06000000000000000000000003B
:1005200000001E3F40C0C0C0C0403F1E0000000091
:1005300000000000FF7E1C3E41C1C1C1C14100005E
:10054000000041C1C1C1C1413E1C000001010101C7
:100550000101FF7E000041C1C1C1C1413E1C1C3EE2
:1005600041C1C1C1C1413E1C0000000000000000AB
:10057000FF7E1C3E41C1C1C1C1413E1C000041C1C2
:10058000C1C1C1413E1C08102060023800000000BB
:1005900000000000000000FE0000000000000E004F
:1005A0000E00000000D0BE90D0BE9000001C62FF84
:1005B000C28000000C12924CB0880600807C62B2AF
:1005C0001CC0000000000E0E0000000000E0180437
:1005D000020200000002020418E000000024187E5D
:1005E00018240000808080F08080800000000000DF
:1005F00000000000008080808000000000000000FB
:10060000000000000000806018060000F804C232FC
:100610000CF80000000404FE00000000000282420A
:10062000221C00000002222222DC0000C0A09884CC
:10063000FE808000001E121222C20000F844222216
:1006400022C00000000202C2320A0600008C5222C0
:10065000528C00003C42424226F80000000030303C
:1006600000000000000030300000000080804040AA
:10067000202010004040404040400000102020401A
:100680004080800000028242221C00000000000026
:100690000000000000000005000000000000000055
:1006A0000000000000070000070000000004040F25
:1006B000040300000402010304040300030404040F
:1006C000050304000000000000000000000306080D
:1006D00010100000001010080603000000000000C9
:1006E0000000000000000007000000000000160EDF
:1006F00000000000000000000000000000000606EE
:1007000000000000040201000000000001030404D6
:1007100002010000000404070404000000070404B0
:1007200004040000000404040403000000000000AE
:100730000700000000040404040300000102040494
:100740000403000000000700000000000003040490
:100750000403000000040404020100000000060677
:10076000000000000000160E000000000000010163
:100770000202040001010101010100000402020162
:10078000010000000000050000000000F804728A6B
:10079000FA84780000C0380638C0000000FE22222B
:1007A00022DC0000F804020202020000FE02020243
:1007B00004F8000000FE22222222000000FE222275
:1007C00022220000F804020222E20000FE20202083
:1007D00020FE0000000202FE0202000000000002F3
:1007E00002FE0000FE40B0080402000000FE00000F
:1007F00000000000FE0C7080700CFE00FE0C30C08B
:1008000000FE0000F804020204F80000FE4242422A
:10081000221C0000F804020204F8000000FE42421C
:10082000A21C0000001C224242800000020202FEC4
:1008300002020200FE00000000FE00000638C000B8
:10084000C03806003EC0F00EF0C03E0000069860C2
:1008500098060000000618E0180600000202C232E6
:100860000A0600000000FE020202020000061860F4
:100870008000000002020202FE00000040300C0C6A
:1008800030400000000000000000000001020404ED
:100890000400000006010101010106000007040434
:1008A000040300000102040404040000070404041B
:1008B0000201000000070404040400000007000017
:1008C000000000000102040404070000070000000B
:1008D00000070000000404070404000000040404EE
:1008E00004030000070000010204000000070404E4
:1008F00004040000070000010000070007000000DA
:1009000003070000010204040201000007000000C8
:10091000000000000102040C12111000000700008A
:1009200001060000000404040403000000000007A6
:10093000000000000304040404030000000001069A
:100940000100000000070000000700000006010091
:100950000106000000000007000000000605040476
:100960000404000000001F10101010000000000020
:1009700001020400101010101F0000000000000011
:100980000000000008080808080800000000020431
:100990000000000000E0101010F0000000FE201029
:1009A00010E0000000E010101010000000E0101037
:1009B00010FE000000E0909090E000000020FC227B
:1009C0002222020000E0101010F0000000FE2010B3
:1009D00010E000001010F2000000000000101010E5
:1009E000F200000000FE804020100000000202FE25
:1009F00000000000F02010F02010F00000F02010A7
:100A000010E0000000E0101010E0000000F02010E6
:100A100010E0000000E0101010F0000000F02010C6
:100A2000107000000060909090200000002020FCDA
:100A30002020200000F0000000F000000070800086
:100A400080700000F000C030C000F0000030C0C076
:100A5000300000000030C0008070000000101090D6
:100A6000503000000080807E02020000000000FE86
:100A7000000000000002027E8080000000808000F4
:100A800000008000000000000000000000000000E6
:100A90000000000000030404020700000007040433
:100AA0000403000000030404040400000003040421
:100AB0000207000000030404040400000000070013
:100AC0000000000000332424221F00000007000063
:100AD0000007000000000704040000002020202080
:100AE0001F000000000700010204000000000007D2
:100AF00004040000070000070000070000070000D2
:100B0000000700000003040404030000003F040485
:100B10000403000000030404023F0000000700007B
:100B200000000000000204040403000000000003B1
:100B3000040404000003040402070000000003048E
:100B4000030000000106010001060100000601018A
:100B5000060000002020310E0300000000060504FE
:100B6000040400000000001F101000000000000737
:100B7000000000000010101F000000000100000134
:100B8000010100000000000000000000050800FF57
:100B90000C4B00000000003E5B4F5B3E3E6B4F6B1A
:100BA0003E1C3E7C3E1C183C7E3C181C577D571C4E
:100BB0001C5E7F5E1C00183C1800FFE7C3E7FF00C7
:100BC00018241800FFE7DBE7FF30483A060E262915
:100BD000792926407F050507407F05253F5A3CE7D8
:100BE0003C5A7F3E1C1C08081C1C3E7F14227F229E
:100BF000145F5F005F5F06097F017F006689956A69
:100C0000606060606094A2FFA29408047E040810F3
:100C1000207E201008082A1C08081C2A08081E101C
:100C20001010100C1E0C1E0C30383E3830060E3ED4
:100C30000E06000000000000005F00000007000733
:100C400000147F147F14242A7F2A1223130864625D
:100C500036495620500008070300001C22410000BE
:100C600041221C002A1C7F1C2A08083E080800801C
:100C700070300008080808080000606000201008B4
:100C800004023E5149453E00427F400072494949B5
:100C9000462141494D331814127F102745454539E7
:100CA0003C4A4949314121110907364949493646EB
:100CB0004949291E000014000000403400000008CB
:100CC000142241141414141400412214080201596E
:100CD00009063E415D594E7C1211127C7F494949FB
:100CE000363E414141227F4141413E7F4949494190
:100CF0007F090909013E414151737F0808087F00BF
:100D0000417F41002040413F017F081422417F4044
:100D10004040407F021C027F7F0408107F3E41411B
:100D2000413E7F090909063E4151215E7F0919298B
:100D300046264949493203017F01033F4040403F75
:100D40001F2040201F3F4038403F631408146303B6
:100D5000047804036159494D43007F414141020435
:100D6000081020004141417F04020102044040403C
:100D70004040000307080020545478407F28444432
:100D8000383844444428384444287F38545454184C
:100D900000087E090218A4A49C787F080404780047
:100DA000447D40002040403D007F10284400004129
:100DB0007F40007C047804787C080404783844443C
:100DC0004438FC1824241818242418FC7C08040433
:100DD00008485454542404043F44243C4040207C9C
:100DE0001C2040201C3C4030403C44281028444CEF
:100DF0009090907C4464544C4400083641000000BC
:100E0000770000004136080002010204023C26235C
:100E1000263C1EA1A161123A4040207A3854545514
:100E200059215555794121545478412155547840E0
:100E300020545579400C1E52721239555555593966
:100E40005454545939555454580000457C410002BB
:100E5000457D420001457C40F0292429F0F02825F9
:100E600028F07C545545002054547C547C0A097F5A
:100E70004932494949323248484832324A48483072
:100E80003A4141217A3A42402078009DA0A07D3924
:100E9000444444393D4040403D3C24FF2424487EA6
:100EA0004943662B2FFC2F2BFF0929F620C0887E93
:100EB000090320545479410000447D413048484A98
:100EC00032384040227A007A0A0A727D0D19317D4B
:100ED0002629292F28262929292630484D4020381F
:100EE0000808080808080808382F10C8ACBA2F10DE
:100EF0002834FA00007B000008142A142222142A45
:100F00001408AA005500AAAA55AA55AA000000FF75
:100F100000101010FF00141414FF001010FF00FF49
:100F20001010F010F0141414FC001414F700FF005B
:100F300000FF00FF1414F404FC141417101F101009
:100F40001F101F1414141F00101010F000000000D8
:100F50001F101010101F10101010F010000000FFD4
:100F6000101010101010101010FF10000000FF14CF
:100F70000000FF00FF00001F10170000FC04F41425
:100F8000141710171414F404F40000FF00F71414DD
:100F90001414141414F700F7141414171410101F59
:100FA000101F141414F4141010F010F000001F108F
:100FB0001F0000001F14000000FC140000F010F0DF
:100FC0001010FF10FF141414FF141010101F000055
:100FD0000000F010FFFFFFFFFFF0F0F0F0F0FFFF68
:100FE000FF0000000000FFFF0F0F0F0F0F384444F9
:100FF00038447C2A2A3E147E02020606027E027EC5
:101000000263554941633844443C04407E201E201D
:1010100006027E020299A5E7A5991C2A492A1C4CC2
:101020007201724C304A4D4D303048784830BC62C5
:101030005A463D3E494949007E0101017E2A2A2A3D
:101040002A2A44445F444440514A444040444A515F
:10105000400000FF0103E080FF000008086B6B0800
:101060003612362436060F090F0600001818000045
:10107000001010003040FF0101001F01011E001987
:101080001D1712003C3C3C3C00000000000000002A
:101090000800020100000304070000000000000037
:1010A0000000000000250028002B000000000024A4
:1010B0000027002A000404040404040404020202B9
:1010C0000202020303030303030102040810204089
:1010D0008001020408102001020408102000CE0E36
:1010E00011241FBECFEFD8E0DEBFCDBF12E0A0E0DD
:1010F000B1E0E0E2F7E202C005900D92AC3BB1072F
:10110000D9F723E0ACEBB2E001C01D92A737B207DC
:10111000E1F718E0C0E7D8E004C02197FE010E9483
:10112000BA10CF36D107C9F70E94030F0C948E1363
:101130000C94000090E0FC01E753FF4E2491FC0169
:10114000EB54FF4E8491882399F090E0880F991F0B
:10115000FC01E555FF4EA591B491FC01EF55FF4E02
:10116000859194918FB7F894EC91E22BEC938FBF1B
:101170000895CF92DF92EF92FF920F931F93CF9338
:10118000DF936C017A018B01C0E0D0E0CE15DF0562
:1011900089F0D8016D918D01D601ED91FC910190FE
:1011A000F081E02DC6010995892B11F47E0102C062
:1011B0002196ECCFC701DF91CF911F910F91FF9046
:1011C000EF90DF90CF900895FC01918D828D98175C
:1011D00061F0828DDF01A80FB11D5D968C91928D1B
:1011E0009F5F9F73928F90E008958FEF9FEF089518
:1011F000FC01918D828D981731F0828DE80FF11DE1
:10120000858D90E008958FEF9FEF0895FC01918DFB
:10121000228D892F90E0805C9F4F821B91098F73F4
:101220009927089587EC92E00E94060921E0892B16
:1012300009F420E0822F0895FC01848DDF01A80FBE
:10124000B11DA35ABF4F2C91848D90E001968F73EE
:101250009927848FA689B7892C93A089B1898C910D
:1012600080648C93938D848D981306C00288F389D3
:10127000E02D80818F7D80830895EF92FF920F9300
:101280001F93CF93DF93EC0181E0888F9B8D8C8D32
:10129000981305C0E889F989808185FD24C0F62E60
:1012A0000B8D10E00F5F1F4F0F731127E02E8C8DF9
:1012B000E8120CC00FB607FCFACFE889F9898081E3
:1012C00085FFF5CFCE010E941C09F1CF8B8DFE0169
:1012D000E80FF11DE35AFF4FF0820B8FEA89FB897B
:1012E0008081806207C0EE89FF896083E889F9897F
:1012F00080818064808381E090E0DF91CF911F91B5
:101300000F91FF90EF900895CF93DF93EC01888DBC
:101310008823C9F0EA89FB89808185FD05C0A889F9
:10132000B9898C9186FD0FC00FB607FCF5CF80817F
:1013300085FFF2CFA889B9898C9185FFEDCFCE01C9
:101340000E941C09E7CFDF91CF91089580E090E0E3
:10135000892B29F00E94120981110C940000089534
:1013600090E0FC01E357FF4E3491FC01E753FF4E40
:101370002491FC01EB54FF4EE491EE2309F43BC0B1
:10138000332339F1333091F038F43130A9F0323071
:1013900001F584B58F7D12C0373091F03830A1F05F
:1013A0003430B9F4809180008F7D03C0809180003B
:1013B0008F77809380000DC084B58F7784BD09C07E
:1013C0008091B0008F7703C08091B0008F7D8093B3
:1013D000B000F0E0EE0FFF1FEF55FF4EA591B49166
:1013E0008FB7F894EC91611103C020952E2301C0B2
:1013F0002E2B2C938FBF08953FB7F8948091C10294
:101400009091C202A091C302B091C40226B5A89BDC
:1014100005C02F3F19F00196A11DB11D3FBFBA2F86
:10142000A92F982F8827820F911DA11DB11DBC01E6
:10143000CD0142E0660F771F881F991F4A95D1F7AB
:1014400008958F929F92AF92BF92CF92DF92EF92C8
:10145000FF926B017C010E94FC094B015C01C114ED
:10146000D104E104F104F1F00E94FC09DC01CB019C
:1014700088199909AA09BB09883E9340A105B105BD
:1014800070F321E0C21AD108E108F10888EE880E55
:1014900083E0981EA11CB11CC114D104E104F10425
:1014A00019F7DDCFFF90EF90DF90CF90BF90AF9016
:1014B0009F908F90089508959C01803167E2960770
:1014C000E4F4813F78ED9707D4F097FF05C031959C
:1014D0002195310992E001C091E04AE050E08AE0B4
:1014E0002417350744F09F5FBA01869FA001879FAC
:1014F000500D1124F5CF892F089585E0089586E0D9
:1015000008950DB407FEFDCF2898209A2A9A2298B4
:101510008CB58F7B8CBD08958CB580648CBD2A986A
:10152000229A08950F936034C8F54033B8F501301E
:10153000C1F4213099F5E42FE695E695E69580E42F
:10154000E89FF0011124E60FF11DE050FF4F4770B6
:1015500081E090E001C0880F4A95EAF790818927E1
:101560001CC0842F869586958695E62FF0E04770FF
:1015700090E4899FE00DF11D1124E050FF4F81E0C0
:1015800090E001C0880F4A95EAF7213019F4908164
:10159000892B03C080959081892380830F910895C2
:1015A0009F92AF92BF92CF92DF92EF92FF920F93F2
:1015B0001F93CF93DF93C82FD62F142FD02E422FF7
:1015C00050E0461B510957FF03C051954195510901
:1015D000812F90E08C1B910997FF03C09195819515
:1015E0009109BB24B3948417950714F0B12C06C05D
:1015F000812F122F282F8C2FCD2FD82F1C1730F48E
:101600008D2FD22F282F8C2FC12F182FA12EAC1A3F
:10161000822F90E08D1B910997FF03C091958195D2
:101620009109F82ECA2CC694D21718F099249A94CE
:1016300013C09924939410C00E2D2D2DBB2079F04A
:101640004C2F6D2F84E693E00E94920ACF18C7FEBC
:1016500002C0D90DCA0CCF5FC11770F303C04D2F64
:101660006C2FF0CFDF91CF911F910F91FF90EF90F2
:10167000DF90CF90BF90AF909F900895CF92DF9270
:10168000EF920F93CF93DF936C01FC01C281D5855C
:10169000DC0FDE5FCF5FF601CD1770F4638128E0C9
:1016A000260F6B5FE0906903009168034C2F8C2F2D
:1016B0000E94D00ACE5FEFCFC281CF5FCD1778F402
:1016C000F601638125E0260F6D5FE09069030091CC
:1016D00068034C2F8C2F0E94D00AC65FEFCFDF919A
:1016E000CF910F91EF90DF90CF900895EF92FF92FE
:1016F0000F931F93CF93DF93FC012485223040F496
:10170000DF91CF911F910F91FF90EF900C943E0BC2
:10171000EC011381F584F10EF394F3941F5FF1163D
:1017200068F08A8143E0480FE09069030091680304
:10173000212F612F0E94D00A1E5FF1CF1B811F5FF6
:10174000F11670F08A8145E0480FE090690300913E
:101750006803212F612F8D5F0E94D00A165FF0CFA2
:10176000DF91CF911F910F91FF90EF9008957F929D
:101770008F929F92AF92BF92CF92DF92EF92FF92A1
:101780000F931F93CF93DF93EC018C85CC80DD808A
:101790006F857889EE80FF800D857B801A8182308D
:1017A000B8F56C197D0980E090E00E9461114B0151
:1017B0005C01B7016C197D0980E090E00E94611125
:1017C0009B01AC01C501B4010E94C0106B017C01FA
:1017D000602F70E080E090E00E9463119B01AC01FB
:1017E000C701B6010E94EF110E943211F62E862F1A
:1017F000810F43E0480FEE24E39401E0272D672D8D
:101800000E94D00A4B814F5F6A816F5F6F0D39C0B4
:10181000C701861B970BBC0180E090E00E9461111C
:101820004B015C01C7018C199D09BC0180E090E06F
:101830000E9461119B01AC01C501B4010E94C0105E
:101840006B017C01602F70E080E090E00E946311EA
:101850009B01AC01C701B6010E94EF110E94321139
:10186000F62E670D87E0810F23E0260FEE24E39428
:1018700001E0482F0E94D00A4B814F5F4F0D6A81D3
:101880006A5F21E084E693E00E94920ADF91CF91A3
:101890001F910F91FF90EF90DF90CF90BF90AF908E
:1018A0009F908F907F9008955F926F927F928F921A
:1018B0009F92AF92BF92CF92DF92EF92FF920F93DF
:1018C0001F93CF93DF93EC016A3009F46AC06D3047
:1018D00009F4C9C0E62EBD80AC801C859B84298597
:1018E000621708F450C08A8590E0820F911D462F40
:1018F00050E0481759070CF046C0E21A8F808694D2
:101900008694869481E0881508F451C0C92C38E08B
:10191000D32ED10E9C2D99198E81282F30E0E92FDE
:10192000F0E02E173F077CF1981789F0A885B0E00A
:10193000AA0FBB1FAA57BD4FE89EE00DF11D112451
:1019400036968D919C91E80FF91FF49001C0F12C0F
:10195000812EF0FE03C00B2D2A2D04C021E0A11022
:1019600020E00B2D482D6C2DCE010E94920AF6949A
:1019700083948D10EECFC394CDCF8FEFC81AD80AC1
:10198000185FC814D0F14E818B85840F8F5F8B87D1
:1019900090E020E430E0241B3109281739070CF0CF
:1019A00062C09C858F81890F8C871B865CC0ED850A
:1019B000FE852E8130E0CF01B9010E9484108E2D6A
:1019C00090E00E948410829F7001839FF00C929F90
:1019D000F00C11248E9E90018F9E300D1124269FB5
:1019E000C001279F900D369F900D1124E80EF91E1F
:1019F000C12CD12C86E0E80EF11C792C872D891999
:101A00009E81891708F0B9CFA885B0E0AA0FBB1F47
:101A1000AA57BD4F2D853E85C29EF001C39EF00D95
:101A2000D29EF00D1124EE0DFF1DE80FF11D8D91DA
:101A30009C91E80FF91F6490512C452D410F60FED9
:101A400003C00B2D2A2D04C021E0A11020E00B2D96
:101A5000672DCE010E94920A6694539488E0581232
:101A6000ECCF7394CBCF81E090E0DF91CF911F91C9
:101A70000F91FF90EF90DF90CF90BF90AF909F902D
:101A80008F907F906F905F9008950DB407FEFDCF0B
:101A90000895CF93DF9300D0CDB7DEB76A838983F3
:101AA0000E948C0A89818EBD0E94450D6A816EBD9F
:101AB0000F900F90DF91CF910C94810A08950895B3
:101AC000089508958F929F92AF92BF920F931F93A4
:101AD000CF93DF93CDB7DEB7A1970FB6F894DEBFF3
:101AE0000FBECDBF19A2423008F44AE08E010F5D4F
:101AF0001F4F842E912CA12CB12CA50194010E9482
:101B00009810E62FB901CA0101501109EA3014F406
:101B1000E05D01C0E95CD801EC93232B242B252B3D
:101B200061F70115110571F0F80101900020E9F746
:101B30003197AF01401B510BB80184E693E00E943E
:101B4000B90802C080E090E0A1960FB6F894DEBF1D
:101B50000FBECDBFDF91CF911F910F91BF90AF907E
:101B60009F908F900895CF92DF92EF92FF92CF9344
:101B7000DF93EC01E881F9810084F185E02D09957E
:101B800088859985988B8F87E881F9810084F18514
:101B9000E02DCE0109958E85811151C02C858B8158
:101BA0009A81213069F038F0223061F42D85820F5E
:101BB0008C5F9F5F08C08F5F2D85920F9C5F03C075
:101BC000865F01C0975F90936F0380937003CF840B
:101BD000D888C6010E945C0ACB85C81BCC2351F073
:101BE00041E050E06AEB72E084E693E00E94B908BD
:101BF000C150F4CF0D2C000CEE08FF08F7FE14C006
:101C0000E0916403F09165030190F081E02D6DE2B5
:101C100084E693E0099566277727CB016C197D0947
:101C20008E099F094AE003C04AE0C701B601DF916F
:101C3000CF91FF90EF90DF90CF900C94620DDF91E9
:101C4000CF91FF90EF90DF90CF9008950E9489137D
:101C50000C94F1120C94F1121F920F920FB60F9286
:101C600011242F933F934F935F936F937F938F93A1
:101C70009F93AF93BF93EF93FF9387EC92E00E9403
:101C80001C09FF91EF91BF91AF919F918F917F912F
:101C90006F915F914F913F912F910F900FBE0F90D9
:101CA0001F9018951F920F920FB60F9211242F9329
:101CB0008F939F93EF93FF93E091D702F091D80217
:101CC0008081E091DD02F091DE0282FD12C0908100
:101CD0008091E0028F5F8F732091E102821751F0B3
:101CE000E091E002F0E0E953FD4F958F8093E00230
:101CF00001C08081FF91EF919F918F912F910F9063
:101D00000FBE0F901F9018951F920F920FB60F9253
:101D100011242F933F938F939F93AF93BF93809101
:101D2000BD029091BE02A091BF02B091C00230915D
:101D3000BC0223E0230F2D3720F40196A11DB11D15
:101D400005C026E8230F0296A11DB11D2093BC02F9
:101D50008093BD029093BE02A093BF02B093C002D5
:101D60008091C1029091C202A091C302B091C402BD
:101D70000196A11DB11D8093C1029093C202A09350
:101D8000C302B093C402BF91AF919F918F913F91D5
:101D90002F910F900FBE0F901F901895E7ECF2E077
:101DA0001382128288EE93E0A0E0B0E084839583F2
:101DB000A683B78386EA92E09183808385EC90E0E6
:101DC0009587848784EC90E09787868780EC90E005
:101DD000918B808B81EC90E0938B828B82EC90E0F6
:101DE000958B848B86EC90E0978B868B118E128E70
:101DF000138E148EE4E6F3E01382128286EB92E0F7
:101E0000918380830895789484B5826084BD84B57D
:101E1000816084BD85B5826085BD85B5816085BDE5
:101E200080916E00816080936E001092810080919D
:101E30008100826080938100809181008160809325
:101E40008100809180008160809380008091B1004A
:101E500084608093B1008091B00081608093B00075
:101E600080917A00846080937A0080917A00826009
:101E700080937A0080917A00816080937A008091CB
:101E80007A00806880937A001092C10010926C03EF
:101E9000ECE8FBE0E491E0936A03EDE8FBE0E49119
:101EA000E0936B03EEE8FBE0E491E0936D03EFE871
:101EB000FBE0E491E0936E03E0E9FBE08491E1E96B
:101EC000FBE0E491F0E024E6829FE00DF11D112497
:101ED000F0937203E093710381E0809368031092A2
:101EE000690310926F03109270035F98579A84E011
:101EF0000E949A0861E084E00E94B0096AE070E004
:101F000080E090E00E94210A5F9A579865E070E0B7
:101F100080E090E00E94210A5F98579A8CB58C7FF0
:101F20008CBD8DB581608DBD2A9A22982898209A03
:101F300060E08DE00E94B00960E08BE00E94B00993
:101F40008DE00E949A088BE00E949A088CB580610F
:101F50008CBD65E070E080E090E00E94210A5F9A0D
:101F600057986AE070E080E090E00E94210A6FE2FA
:101F700088EA0E94490D64E18DE80E94490D0E94A3
:101F80008C0A81EA8EBD0E94810A0E948C0A88EC2C
:101F90008EBD0E94810A6FE881E80E94490D61EFC1
:101FA00089ED0E94490D60E48BED0E94490D0E946D
:101FB0008C0A8FEA8EBD0E94810A60E080E20E9456
:101FC000490D0E948C0A81E28EBD0E94450D1EBC07
:101FD0000E94450D8FE78EBD0E94810A0E948C0AE7
:101FE00082E28EBD0E94450D1EBC0E94450D87E019
:101FF0008EBD0E94810A0E948C0A289A20981EBCDD
:10200000CFEFD3E00E94450D1EBC2197D9F70E9467
:10201000810A62E080E20E94490D80E891E0E0E000
:10202000F1E0DF019C011D9221503040E1F781E198
:1020300090E00E945C12EC011A821B821D821C82BD
:1020400084EF91E09F838E831986188680E090E06C
:102050000E945C0A182F8A8784EF91E00E945C0A34
:10206000811708F4812F8B8788E992E09983888310
:102070001C868EE18D871E86188A1F86CE010E94DF
:102080003E0BCE010E94B70BCE010E94B30DD09340
:10209000C602C093C50260E080E20E94490D0E9422
:1020A0008C0A81E28EBD0E94450D80E28EBD0E94A9
:1020B000450D8FE58EBD0E94810A0E948C0A82E246
:1020C0008EBD0E94450D1EBC0E94450D85E08EBD53
:1020D0000E94810A0E948C0A289A2098809100010F
:1020E0008EBDC1E0D1E00E94450D89918EBD32E0E8
:1020F000C038D307C1F70E94810A62E080E20E94E3
:10210000490D0E94A609FDCFAA1BBB1B51E107C0C8
:10211000AA1FBB1FA617B70710F0A61BB70B881F77
:10212000991F5A95A9F780959095BC01CD01089506
:10213000A1E21A2EAA1BBB1BFD010DC0AA1FBB1FCB
:10214000EE1FFF1FA217B307E407F50720F0A21B3D
:10215000B30BE40BF50B661F771F881F991F1A94AA
:1021600069F760957095809590959B01AC01BD01D4
:10217000CF010895EE0FFF1F0590F491E02D099413
:102180000E94D4100C94B5110E94AE1158F00E9418
:10219000A71140F029F45F3F29F00C949E115111D2
:1021A0000C94E9110C94A4110E94C61168F39923B0
:1021B000B1F3552391F3951B550BBB27AA27621743
:1021C0007307840738F09F5F5F4F220F331F441F50
:1021D000AA1FA9F335D00E2E3AF0E0E832D0915084
:1021E0005040E695001CCAF72BD0FE2F29D0660F71
:1021F000771F881FBB1F261737074807AB07B0E8B4
:1022000009F0BB0B802DBF01FF2793585F4F3AF0B9
:102210009E3F510578F00C949E110C94E9115F3F9C
:10222000E4F3983ED4F3869577956795B795F7953F
:102230009F5FC9F7880F911D9695879597F9089527
:10224000E1E0660F771F881FBB1F621773078407C3
:10225000BA0720F0621B730B840BBA0BEE1F88F7D2
:10226000E09508950E94CE1188F09F5798F0B92FFD
:102270009927B751B0F0E1F0660F771F881F991FBB
:102280001AF0BA95C9F714C0B13091F00E94E81164
:10229000B1E008950C94E811672F782F8827B85F74
:1022A00039F0B93FCCF3869577956795B395D9F713
:1022B0003EF490958095709561957F4F8F4F9F4F1D
:1022C0000895E89409C097FB3EF490958095709529
:1022D00061957F4F8F4F9F4F9923A9F0F92F96E972
:1022E000BB279395F695879577956795B795F111E7
:1022F000F8CFFAF4BB0F11F460FF1BC06F5F7F4F84
:102300008F4F9F4F16C0882311F096E911C0772395
:1023100021F09EE8872F762F05C0662371F096E89E
:10232000862F70E060E02AF09A95660F771F881F6D
:10233000DAF7880F9695879597F9089597F99F672B
:1023400080E870E060E008959FEF80EC089500243D
:102350000A941616170618060906089500240A940A
:1023600012161306140605060895092E0394000C90
:1023700011F4882352F0BB0F40F4BF2B11F460FF1F
:1023800004C06F5F7F4F8F4F9F4F089557FD905848
:10239000440F551F59F05F3F71F04795880F97FB29
:1023A000991F61F09F3F79F08795089512161306E3
:1023B0001406551FF2CF4695F1DF08C01616170612
:1023C0001806991FF1CF8695710561050894089547
:1023D000E894BB2766277727CB0197F908950E94D9
:1023E00002120C94B5110E94A71138F00E94AE1190
:1023F00020F0952311F00C949E110C94A41111243B
:102400000C94E9110E94C61170F3959FC1F3950FCA
:1024100050E0551F629FF001729FBB27F00DB11D68
:10242000639FAA27F00DB11DAA1F649F6627B00DF8
:10243000A11D661F829F2227B00DA11D621F739FE1
:10244000B00DA11D621F839FA00D611D221F749FEF
:102450003327A00D611D231F849F600D211D822F36
:10246000762F6A2F11249F5750409AF0F1F088235D
:102470004AF0EE0FFF1FBB1F661F771F881F91508A
:102480005040A9F79E3F510580F00C949E110C948A
:10249000E9115F3FE4F3983ED4F38695779567950D
:1024A000B795F795E7959F5FC1F7FE2B880F911DB4
:1024B0009695879597F90895CF93DF93823091058C
:1024C00010F482E090E0E0917503F091760320E053
:1024D00030E0C0E0D0E0309711F1408151814817E1
:1024E0005907C0F04817590761F4828193812097FA
:1024F00019F09B838A832BC0909376038093750396
:1025000026C02115310519F04217530718F49A0116
:10251000BE01DF01EF010280F381E02DDCCF211548
:10252000310509F1281B390B2430310590F412963E
:102530008D919C9113976115710521F0FB01938397
:10254000828304C09093760380937503FD013296D5
:1025500044C0FD01E20FF31F819391932250310992
:102560002D933C933AC02091730330917403232B35
:1025700041F42091820230918302309374032093BE
:10258000730320918002309181022115310541F4BD
:102590002DB73EB74091840250918502241B350B24
:1025A000E0917303F0917403E217F307A0F42E1B7C
:1025B0003F0B2817390778F0AC014E5F5F4F2417A7
:1025C000350748F04E0F5F1F509374034093730319
:1025D0008193919302C0E0E0F0E0CF01DF91CF91D1
:1025E00008950F931F93CF93DF93009709F48CC046
:1025F000FC013297138212820091750310917603C9
:102600000115110581F420813181820F931F2091E2
:102610007303309174032817390779F5F093740325
:10262000E093730371C0D80140E050E0AE17BF07DC
:1026300050F412962D913C911397AD01211531055F
:1026400009F1D901F3CF9D01DA013383228360813F
:102650007181860F971F8217930769F4EC01288117
:102660003981260F371F2E5F3F4F318320838A81A8
:102670009B8193838283452B29F4F0937603E09327
:10268000750342C01396FC93EE931297ED014991A6
:1026900059919E01240F351FE217F30771F48081D1
:1026A0009181840F951F029611969C938E9382813F
:1026B000938113969C938E931297E0E0F0E0D801FB
:1026C00012968D919C911397009719F0F8018C0147
:1026D000F6CF8D919C9198012E5F3F4F820F931FF3
:1026E00020917303309174032817390769F43097E8
:1026F00029F4109276031092750302C0138212829D
:102700001093740300937303DF91CF911F910F9186
:10271000089581E090E0F8940C948E13F894FFCF24
:1027200000000000000000000000000000000000A9
:102730000000000000000000E0F8FCFEFFFFFFFFCB
:10274000FFFFFF0F07070606008080000000000063
:102750000000000000000000000000000000000079
:102760000000000000000000000000000000000069
:10277000000080808080808081070F3F3FFFFFFF47
:10278000FFFFFFFFFEFEFCFCFCFEFFFFFFFCF8E08E
:102790000000000000000000000000000000000039
:1027A000000000000000000000000000000000FC2D
:1027B000FEFFFFFFFFFFFFF1E0E0E0E0E0F0FDFFE4
:1027C000FFFFFFFFFFFFFFFFFFFFFFFFFFFFFFFF19
:1027D00000000000000000000000000000000000F9
:1027E000000000000000000000000000000000FFEA
:1027F000FFFFFFFFFFFFFFFFFFFFFFFFFFFFFFFFE9
:10280000FFFFFFFFFFFFFFFFFFFFFF7F3F1F0701EE
:1028100000000000000000000000000000000000B8
:10282000000000000000000000000000000000FFA9
:10283000FFFFFFFFFFFFFFFF7F3F1F1F0F0F0F0F68
:102840000F0F0F0F07070703030100000000000030
:102850000000000000000000000000000000000078
:10286000000000000000000000000000000000FF69
:102870007F3F1F0F07030100000000000000000061
:102880000000000000000000000000000000000048
:102890000000000000000000000000000000000038
:1028A0000000770380008C0B8605900472011401F0
:1028B000AE00680000000000B30D760B5B0A280E26
:1028C000B70B000000003D09B9080609E408F80844
:0C28D000840900000000540CB90820002E
:00000001FF
